:100000000C9462000C948A000C948A000C948A0070
:100010000C948A000C948A000C948A000C948A0038
:100020000C948A000C948A000C948A000C948A0028
:100030000C948A000C948A000C948A000C948A0018
:100040000C949E040C948A000C940E050C94E80405
:100050000C948A000C948A000C948A000C948A00F8
:100060000C948A000C948A000000000023002600F3
:10007000290000000000240027002A0000000000E2
:10008000250028002B0004040404040404040202D4
:100090000202020203030303030301020408102007
:1000A0004080010204081020010204081020000012
:1000B0000008000201000003040700000000000027
:1000C0000000400511241FBECFEFD8E0DEBFCDBF3A
:1000D00011E0A0E0B1E0E6EAFEE002C005900D927A
:1000E000AC31B107D9F721E0ACE1B1E001C01D921C
:1000F000AC3DB207E1F710E0C2E6D0E004C02197C2
:10010000FE010E943707C136D107C9F70E94A50535
:100110000C9451070C94000080E480937C00809143
:100120007A00806480937A0080917A0086FDFCCF0B
:1001300080917800909179000895833081F028F4BF
:10014000813099F08230A9F008958730A9F0883085
:10015000C9F08430B1F4809180008F7D03C080911C
:1001600080008F7780938000089584B58F7784BD59
:10017000089584B58F7DFBCF8091B0008F778093F9
:10018000B00008958091B0008F7DF9CF1F93CF9379
:10019000DF93282F30E0F901E255FF4F8491F901F8
:1001A000E656FF4FD491F901EA57FF4FC491CC2393
:1001B000A9F0162F81110E949D00EC2FF0E0EE0FA8
:1001C000FF1FE458FF4FA591B4918FB7F894EC91BD
:1001D000111108C0D095DE23DC938FBFDF91CF9142
:1001E0001F910895DE2BF8CFCF93DF93EC01809120
:1001F000CA019091CB01029749F4C130D10509F4AD
:100200003BC06CF560E0209709F437C08091CA01CB
:100210009091CB01049749F4C130D10509F45CC039
:100220000CF037C0209709F442C08091CA01909128
:10023000CB01059709F0E5C0CA30D10508F0E1C04F
:10024000FE01EB5DFE4F0C94370784019001A10184
:10025000B701D201D401DB01E701F801FF01C2308F
:10026000D105A9F060E0C330D10581F68091CE01BF
:100270000E94C60060E006C061E08091CE010E944D
:10028000C60061E08091D0010E94C600BFCF61E04E
:10029000EDCFC230D10539F1C330D10509F0C5CF5A
:1002A00061E08091CE010E94C60060E022C061E062
:1002B0008091CE010E94C60060E08091D0010E9432
:1002C000C60061E08091D2010E94C60060E080918A
:1002D000D4010E94C600A9CF60E08091CE010E94A7
:1002E000C60061E0EACF60E08091CE010E94C600C6
:1002F00061E08091D0010E94C60060E08091D2014F
:100300000E94C60061E0E3CF60E08091CE010E94D0
:10031000C60061E08091D0010E94C60061E00BC080
:1003200060E08091CE010E94C60061E08091D00122
:100330000E94C60060E08091D2010E94C60060E089
:1003400010C060E08091CE010E94C60061E0809103
:10035000D0010E94C60060E08091D2010E94C600D8
:1003600061E08091D4010E94C60061E015C060E0A8
:100370008091CE010E94C60061E08091D0010E9470
:10038000C60060E08091D2010E94C60061E08091C9
:10039000D4010E94C60060E08091D601DF91CF9128
:1003A0000C94C60061E0E4CF61E08091CE010E9430
:1003B000C60060E0E2CF61E08091CE010E94C600FD
:1003C00060E08091D0010E94C60061E0DBCF61E077
:1003D0008091CE010E94C60060E08091D0010E9411
:1003E000C60061E08091D2010E94C60060E0CFCFDC
:1003F00061E08091CE010E94C60060E08BCF60E09A
:10040000F8CFDF91CF910895CF93DF9390E0FC0177
:10041000E656FF4F24918A579F4FFC018491882311
:10042000D1F090E0880F991FFC01EE58FF4FA59185
:10043000B491FC01E458FF4FC591D49161110EC0F5
:100440009FB7F8948C91E22FE0958E238C932881AE
:10045000E223E8839FBFDF91CF9108958FB7F8948F
:10046000EC91E22BEC938FBFF6CF3FB7F8948091DD
:10047000210190912201A0912301B091240126B580
:10048000A89B05C02F3F19F00196A11DB11D3FBFCC
:10049000BA2FA92F982F8827BC01CD01620F711D9B
:1004A000811D911D42E0660F771F881F991F4A9595
:1004B000D1F708954F925F926F927F928F929F92A1
:1004C000AF92BF92EF92FF920F931F93CF93DF9360
:1004D000EC0197FF04C0CC27DD27C81BD90B1816E9
:1004E00019060CF061C081E090E09093C301809305
:1004F000C20104E010E08AE0E82EF12C209709F414
:100500006FC00E9435028090D8019090D901A090D0
:10051000DA01B090DB012B013C01481859086A0848
:100520007B088090C4019090C501A090C601B09056
:10053000C701481459046A047B0400F36093D8018E
:100540007093D9018093DA019093DB018091CC0103
:100550009091CD012091C2013091C301213031052C
:1005600059F501969093CD018093CC012091C8015B
:100570003091C9018217930721F41092CD01109296
:10058000CC0121978091CC019091CD012091CA019D
:100590003091CB01B7012530310509F0B8010E9437
:1005A000E2060E94F400AACF892B09F4A2CF109290
:1005B000C3011092C2019DCF892B41F48091C801E3
:1005C0009091C9019093CD018093CC018091CC0191
:1005D0009091CD0101979093CD018093CC01D1CF23
:1005E000DF91CF911F910F91FF90EF90BF90AF904F
:1005F0009F908F907F906F905F904F900895AF92F3
:10060000BF92CF92DF92EF92FF920F931F93CF93FF
:10061000DF936C017B018B01040F151FEB015E0161
:10062000AE18BF08C017D10759F06991D601ED91F6
:10063000FC910190F081E02DC6010995892B79F795
:10064000C501DF91CF911F910F91FF90EF90DF9047
:10065000CF90BF90AF900895FC01538D448D252F0E
:1006600030E0842F90E0821B930B541710F0CF964C
:10067000089501970895FC01918D828D981761F07E
:10068000A28DAE0FBF2FB11D5D968C91928D9F5F95
:100690009F73928F90E008958FEF9FEF0895FC0174
:1006A000918D828D981731F0828DE80FF11D858D27
:1006B00090E008958FEF9FEF0895FC01918D228DBA
:1006C000892F90E0805C9F4F821B91098F7399273F
:1006D000089585E291E00E945D0321E0892B09F4F1
:1006E00020E0822F089580E090E0892B29F00E947D
:1006F000690381110C9400000895FC01A48DA80FDA
:10070000B92FB11DA35ABF4F2C91848D90E0019653
:100710008F739927848FA689B7892C93A089B18973
:100720008C91837080648C93938D848D981306C014
:100730000288F389E02D80818F7D80830895EF9278
:10074000FF920F931F93CF93DF93EC0181E0888F8B
:100750009B8D8C8D98131AC0E889F989808185FF5B
:1007600015C09FB7F894EE89FF896083E889F989FD
:1007700080818370806480839FBF81E090E0DF91FF
:10078000CF911F910F91FF90EF900895F62E0B8D52
:1007900010E00F5F1F4F0F731127E02E8C8D8E110D
:1007A0000CC00FB607FCFACFE889F989808185FF74
:1007B000F5CFCE010E947D03F1CFEB8DEC0FFD2F25
:1007C000F11DE35AFF4FF0829FB7F8940B8FEA892F
:1007D000FB8980818062CFCFCF93DF93EC01888D3E
:1007E0008823B9F0AA89BB89E889F9898C9185FDAC
:1007F00003C0808186FD0DC00FB607FCF7CF8C913A
:1008000085FFF2CF808185FFEDCFCE010E947D0371
:10081000E9CFDF91CF910895FC0101900020E9F725
:100820003197AF01481B590BBC0185E291E00C9454
:10083000FF028F929F92AF92BF92CF92DF92EF9280
:10084000FF920F931F93CF93DF93CDB7DEB7A1979E
:100850000FB6F894DEBF0FBECDBF6C01990FEE0846
:10086000FF08F7FE47C06DE285E291E00E949F031A
:100870008C0122273327A9012C193D094E095F0954
:1008800019A2CE0181967C019AE0892E912CA12C8F
:10089000B12CCA01B901A50194010E94F606605D60
:1008A000F70162937F01211531054105510589F753
:1008B00090E080E0309719F0CF010E940C04080FFF
:1008C000191F82E191E00E940C04800F911FA196F4
:1008D0000FB6F894DEBF0FBECDBFDF91CF911F9151
:1008E0000F91FF90EF90DF90CF90BF90AF909F90CF
:1008F0008F900895A701960119A28E010F5D1F4FD9
:100900008AE0C82ED12CE12CF12CCA01B901A70133
:1009100096010E94F606605DF80162938F01211531
:1009200031054105510589F7309729F0CF010E9423
:100930000C048C01C6CF10E000E0C3CF1F920F92D1
:100940000FB60F9211242F933F938F939F93AF93E2
:10095000BF9380911D0190911E01A0911F01B09144
:10096000200130911C0123E0230F2D3758F501960B
:10097000A11DB11D20931C0180931D0190931E01A8
:10098000A0931F01B0932001809121019091220139
:10099000A0912301B09124010196A11DB11D809366
:1009A000210190932201A0932301B0932401BF91D0
:1009B000AF919F918F913F912F910F900FBE0F900C
:1009C0001F90189526E8230F0296A11DB11DD2CFC6
:1009D0001F920F920FB60F9211242F933F934F93B4
:1009E0005F936F937F938F939F93AF93BF93EF9397
:1009F000FF9385E291E00E947D03FF91EF91BF910B
:100A0000AF919F918F917F916F915F914F913F91A6
:100A10002F910F900FBE0F901F9018951F920F925D
:100A20000FB60F9211242F938F939F93EF93FF9301
:100A3000E0913501F09136018081E0913B01F09128
:100A40003C0182FD1BC0908180913E018F5F8F73BE
:100A500020913F01821741F0E0913E01F0E0EB5D13
:100A6000FE4F958F80933E01FF91EF919F918F9163
:100A70002F910F900FBE0F901F9018958081F4CF8B
:100A8000CF93DF93E5E2F1E01382128288EE93E0E8
:100A9000A0E0B0E084839583A683B78384E091E0EF
:100AA0009183808385EC90E09587848784EC90E047
:100AB0009787868780EC90E0918B808B81EC90E02B
:100AC000938B828B82EC90E0958B848B86EC90E00C
:100AD000978B868B118E128E138E148EC2ECD1E002
:100AE0001B861A86198218821E8A1F8A188E198EF2
:100AF00084E190E09F838E838FE090E09D878C87D8
:100B000080E190E09F878E8781E190E0998B888BD0
:100B100082E190E09B8B8A8B61E08FE00E9404026F
:100B200061E08E850E94040261E088890E940402CF
:100B300061E08A890E9404021D8A1C8A84E090E098
:100B400099878887DF91CF910895789484B58260E2
:100B500084BD84B5816084BD85B5826085BD85B561
:100B6000816085BD80916E00816080936E001092DF
:100B7000810080918100826080938100809181005A
:100B800081608093810080918000816080938000EB
:100B90008091B10084608093B1008091B000816049
:100BA0008093B00080917A00846080937A00809175
:100BB0007A00826080937A0080917A0081608093CD
:100BC0007A0080917A00806880937A001092C10048
:100BD000E0913501F091360182E08083E0913101AE
:100BE000F09132011082E0913301F09134018FECE9
:100BF000808310923D01E0913901F0913A0186E045
:100C00008083E0913701F091380180818061808399
:100C1000E0913701F0913801808188608083E09114
:100C20003701F0913801808180688083E09137013D
:100C3000F091380180818F7D808360E082E00E94A6
:100C4000040260E08EE00E94040261E08DE00E94F8
:100C5000040260E08DE00E94C6002091C80130913E
:100C6000C901032E000C440B550B60E077E883E9C3
:100C700093E00E941807CA01B9012CE330E040E07C
:100C800050E00E9418072093C4013093C50140939F
:100C9000C6015093C70120EB822E20E0922E0CE972
:100CA00010E038E8A32E30E0B32EC0E0D0E085E2BB
:100CB00091E00E945D03181619067CF485E291E02C
:100CC0000E943B03833409F042C088E290E00E9416
:100CD0005A0260E08DE00E94C6000E948C007C01F8
:100CE00088E191E00E940C04C7010E9419040E944F
:100CF00035022B013C0184EFC82EDD24D394E12C76
:100D0000F12C0E9435026419750986099709683E1D
:100D1000734081059105A8F3F1E0CF1AD108E108ED
:100D2000F10828EE420E23E0521E611C711CC11412
:100D3000D104E104F10429F7209709F4B8CF0E9407
:100D40006903882309F4B3CF0E940000B0CF813437
:100D500031F488ED9FEF0E945A0261E0BBCF8235EB
:100D600029F5F4018491F801E490F501F490FF2055
:100D7000D1F081110E949D00EF2DF0E0EE0FFF1FDA
:100D8000E859FF4FA591B4918C91E82281E0F12CB4
:100D900009F480E0E82E85E191E00E940C04C7018F
:100DA0000E9419049ACFE12CF12CF5CF8C3409F074
:100DB00094CF0E948C007C0188E191E00E940C0499
:100DC000C701EECF97FB072E16F4009407D077FDEE
:100DD00009D00E943D0707FC05D03EF4909581950F
:100DE0009F4F0895709561957F4F0895A1E21A2E47
:100DF000AA1BBB1BFD010DC0AA1FBB1FEE1FFF1FBF
:100E0000A217B307E407F50720F0A21BB30BE40B0E
:100E1000F50B661F771F881F991F1A9469F7609555
:100E20007095809590959B01AC01BD01CF0108950F
:100E3000052E97FB1EF400940E942F0757FD07D044
:100E40000E94F60607FC03D04EF40C942F07509531
:100E50004095309521953F4F4F4F5F4F08959095A6
:100E60008095709561957F4F8F4F9F4F0895EE0F3E
:100E7000FF1F0590F491E02D0994AA1BBB1B51E1C3
:100E800007C0AA1FBB1FA617B70710F0A61BB70BFA
:100E9000881F991F5A95A9F780959095BC01CD019F
:060EA0000895F894FFCF55
:100EA600000000009F03FF022C03EC035D033B03DD
:0C0EB6004F030D0A00523A004C3A0000B5
:00000001FF
