:100000000C9462000C948A000C948A000C948A0070
:100010000C948A000C948A000C948A000C948A0038
:100020000C948A000C948A000C948A000C948A0028
:100030000C948A000C948A000C948A000C948A0018
:100040000C9448040C948A000C94B8040C94920408
:100050000C948A000C948A000C948A000C948A00F8
:100060000C948A000C948A000000000024002700F1
:100070002A0000000000250028002B0000000000DE
:1000800023002600290004040404040404040202DA
:100090000202020203030303030301020408102007
:1000A0004080010204081020010204081020000012
:1000B0000008000201000003040700000000000027
:1000C0000000EA0411241FBECFEFD8E0DEBFCDBF91
:1000D00022E0A0EBB1E001C01D92A437B207E1F726
:1000E00011E0A0E0B1E0E6E0F2E102C005900D927F
:1000F000A03BB107D9F710E0C2E6D0E004C02197D9
:10010000FE010E940907C136D107C9F70E943405D4
:100110000C9401090C940000833081F028F48130A4
:1001200099F08230A9F008958730A9F08830C9F09D
:100130008430B1F4809180008F7D03C08091800075
:100140008F7780938000089584B58F7784BD08955C
:1001500084B58F7DFBCF8091B0008F778093B00006
:1001600008958091B0008F7DF9CFCF93DF93282F32
:1001700030E0F901E255FF4F8491F901E656FF4F57
:10018000D491F901EA57FF4FC491CC23A1F081111A
:100190000E948C00EC2FF0E0EE0FFF1FE458FF4FA1
:1001A000A591B491EC91ED2381E090E009F480E019
:1001B000DF91CF91089580E090E0FACF1F93CF9325
:1001C000DF93282F30E0F901E255FF4F8491F901C8
:1001D000E656FF4FD491F901EA57FF4FC491CC2363
:1001E000A9F0162F81110E948C00EC2FF0E0EE0F89
:1001F000FF1FEE58FF4FA591B4918FB7F894EC9183
:10020000111108C0D095DE23DC938FBFDF91CF9111
:100210001F910895DE2BF8CFCF93DF9390E0FC0180
:10022000E656FF4F24918A579F4FFC018491882303
:10023000D1F090E0880F991FFC01E859FF4FA5917C
:10024000B491FC01EE58FF4FC591D491623071F426
:100250009FB7F8943C91822F809583238C93E881FB
:100260002E2B28839FBFDF91CF9108958FB7F894ED
:10027000EC912E2B2C938FBFF6CF3FB7F894809143
:10028000B3019091B401A091B501B091B60126B52A
:10029000A89B05C02F3F19F00196A11DB11D3FBFBE
:1002A000BA2FA92F982F8827BC01CD01620F711D8D
:1002B000811D911D42E0660F771F881F991F4A9587
:1002C000D1F70895AF92BF92CF92DF92EF92FF9253
:1002D0000F931F93CF93DF936C017B018B01040F6E
:1002E000151FEB015E01AE18BF08C017D10759F00A
:1002F0006991D601ED91FC910190F081E02DC6014C
:100300000995892B79F7C501DF91CF911F910F9145
:10031000FF90EF90DF90CF90BF90AF900895FC01D9
:10032000538D448D252F30E0842F90E0821B930B5A
:10033000541710F0CF96089501970895FC01918D00
:10034000828D981761F0A28DAE0FBF2FB11D5D9603
:100350008C91928D9F5F9F73928F90E008958FEFA5
:100360009FEF08952FB7F8948091B7019091B8014D
:10037000A091B901B091BA012FBF8093C3019093AE
:10038000C401A093C501B093C6018BEB91E00E941C
:100390009E0197FF26C02FB7F8948091B7019091E6
:1003A000B801A091B901B091BA012FBF4091C3012A
:1003B0005091C4016091C5017091C601841B950BD9
:1003C000A60BB70B4091BF015091C0016091C101D4
:1003D0007091C20184179507A607B707B0F28FEF97
:1003E0009FEF0895FC01918D828D981731F0828DD9
:1003F000E80FF11D858D90E008958FEF9FEF089530
:10040000FC01918D228D892F90E0805C9F4F821B93
:1004100091098F73992708958BEB91E00E94000258
:1004200021E0892B09F420E0822F089580E090E0FC
:10043000892B29F00E940C0281110C940000089570
:10044000FC01A48DA80FB92FB11DA35ABF4F2C9149
:10045000848D90E001968F739927848FA689B78940
:100460002C93A089B1898C91837080648C93938D37
:10047000848D981306C00288F389E02D80818F7DDA
:1004800080830895EF92FF920F931F93CF93DF9392
:10049000EC0181E0888F9B8D8C8D98131AC0E889C0
:1004A000F989808185FF15C09FB7F894EE89FF898F
:1004B0006083E889F98980818370806480839FBF2D
:1004C00081E090E0DF91CF911F910F91FF90EF902D
:1004D0000895F62E0B8D10E00F5F1F4F0F7311273D
:1004E000E02E8C8D8E110CC00FB607FCFACFE88978
:1004F000F989808185FFF5CFCE010E942002F1CFDE
:10050000EB8DEC0FFD2FF11DE35AFF4FF0829FB7EB
:10051000F8940B8FEA89FB8980818062CFCFCF93DB
:10052000DF93EC01888D8823B9F0AA89BB89E8891B
:10053000F9898C9185FD03C0808186FD0DC00FB6C1
:1005400007FCF7CF8C9185FFF2CF808185FFEDCF3F
:10055000CE010E942002E9CFDF91CF910895089546
:1005600090E080E00895FB0101900020E9F73197C9
:10057000AF01461B570BDC01ED91FC910280F3812A
:10058000E02D0994CF93DF93BC018BEB91E00E94A7
:10059000B302EC0164E271E08BEB91E00E94B302E4
:1005A0008C0F9D1FDF91CF9108950F931F93CF93D1
:1005B000DF93EC0188819981009759F02A813B8172
:1005C0002617370730F081E0DF91CF911F910F910F
:1005D00008958B016F5F7F4F0E943408009759F098
:1005E000998388831B830A832C813D81232B59F7B0
:1005F000FC011082E8CF80E0E7CFCF93DF93EC01DE
:1006000060E08E810E94DE0061E08E810E94DE004B
:1006100060E08E810E94DE008BE891E00197F1F7A7
:10062000DF91CF910895CF92DF92EF92FF920F93D7
:100630001F93CF93DF936C017C0187E0E80EF11CE0
:10064000D0E0C0E0062F10E0B8010C2E02C0759576
:1006500067950A94E2F76170F70181917F010E942A
:10066000DE002196C430D10579F7C601DF91CF9124
:100670001F910F91FF90EF90DF90CF900C94FD02AF
:10068000CF92DF92EF92FF920F931F93CF93DF935E
:10069000EC01F62E642F8C810E94DE008D818F3F4D
:1006A00019F060E00E94DE000F2D10E08F8584FFBE
:1006B00025C06E0187E0C80ED11CF12CE12CB801D9
:1006C0000E2C02C0759567950A94E2F76170F601E9
:1006D00081916F010E94DE00FFEFEF1AFF0A88E0B0
:1006E000E816F10461F7CE01DF91CF911F910F91D0
:1006F000FF90EF90DF90CF900C94FD02B80184E062
:10070000759567958A95E1F7CE010E9413036F2DC9
:10071000CE01DF91CF911F910F91FF90EF90DF906D
:10072000CF900C94130340E0682F88E592E00C947E
:10073000400381E00E9493038BE39FE10197F1F76F
:100740000895CF93DF93823029F4909167029860E7
:100750009093670280936B0210926C0280E4809306
:100760006D0280E180936E0280E580936F0261E00C
:1007700080915C020E940C0180915D028F3F19F014
:1007800061E00E940C0161E080915E020E940C0118
:10079000C8E5D2E09E01285532408091670284FD71
:1007A0000BC084E090E021962817390744F461E0FB
:1007B0008E810E940C01EECF88E090E0F4CF8BE3B5
:1007C0009DE00197F1F760E080915C020E94DE00FD
:1007D00060E080915E020E94DE0080915D028F3FAA
:1007E00019F060E00E94DE008091670284FD34C051
:1007F00063E088E592E00E941303CBE4D6E4CE01E7
:100800000197F1F763E088E592E00E9413032197D6
:10081000F1F763E088E592E00E94130383E592E03C
:100820000197F1F762E088E592E00E94130380915E
:10083000670280620E94930384E0809368028CE0E8
:100840000E9493030E94990382E08093690286E0EC
:10085000DF91CF910C94930380620E9493038BE409
:1008600096E40197F1F78091670280620E949303FA
:1008700083E592E00197F1F78091670280620E9420
:100880009303D5CF41E00E94400381E090E00895BA
:100890001F920F920FB60F9211242F933F938F93B5
:1008A0009F93AF93BF938091B7019091B801A091AE
:1008B000B901B091BA013091B20123E0230F2D3775
:1008C00058F50196A11DB11D2093B2018093B70187
:1008D0009093B801A093B901B093BA018091B3018C
:1008E0009091B401A091B501B091B6010196A11DFE
:1008F000B11D8093B3019093B401A093B501B0935F
:10090000B601BF91AF919F918F913F912F910F9021
:100910000FBE0F901F90189526E8230F0296A11D79
:10092000B11DD2CF1F920F920FB60F9211242F93A9
:100930003F934F935F936F937F938F939F93AF9367
:10094000BF93EF93FF938BEB91E00E942002FF9106
:10095000EF91BF91AF919F918F917F916F915F9137
:100960004F913F912F910F900FBE0F901F901895B0
:100970001F920F920FB60F9211242F938F939F9374
:10098000EF93FF93E091CB01F091CC018081E09156
:10099000D101F091D20182FD1BC090818091D401E0
:1009A0008F5F8F732091D501821741F0E091D401C0
:1009B000F0E0E554FE4F958F8093D401FF91EF91C5
:1009C0009F918F912F910F900FBE0F901F901895B0
:1009D0008081F4CFEBEBF1E01382128288EE93E09A
:1009E000A0E0B0E084839583A683B7838AE091E09A
:1009F0009183808385EC90E09587848784EC90E0F8
:100A00009787868780EC90E0918B808B81EC90E0DB
:100A1000938B828B82EC90E0958B848B86EC90E0BC
:100A2000978B868B118E128E138E148EE8E5F2E072
:100A3000138212828CE191E0918380838CE0848325
:100A40008FEF85838BE0868385E0878384E08087D2
:100A500083E0818782E08287138614861586168656
:100A6000178681E00C94A103CF93DF93CDB7DEB757
:100A700028970FB6F894DEBF0FBECDBF789484B52B
:100A8000826084BD84B5816084BD85B5826085BD8A
:100A900085B5816085BD80916E00816080936E0018
:100AA000109281008091810082608093810080910A
:100AB00081008160809381008091800081608093BB
:100AC00080008091B10084608093B1008091B0007B
:100AD00081608093B00080917A00846080937A0076
:100AE00080917A00826080937A0080917A008160A0
:100AF00080937A0080917A00806880937A001092C7
:100B0000C10082E00E94A103E091CB01F091CC01F1
:100B100082E08083E091C701F091C8011082E091EA
:100B2000C901F091CA018FEC80831092D301E0914A
:100B3000CF01F091D00186E08083E091CD01F0916A
:100B4000CE01808180618083E091CD01F091CE0162
:100B5000808188608083E091CD01F091CE01808119
:100B600080688083E091CD01F091CE0180818F7DFE
:100B7000808362E086E00E940C0162E087E00E94D0
:100B80000C0167E271E088E592E00E94B30200E0A8
:100B900010E0EE24E394F12C86E00E94B500209151
:100BA000B0013091B101892B09F061C021303105CC
:100BB00081F0F092B101E092B0010E94990368E3E4
:100BC00071E088E592E00E94B30284E491E00E9423
:100BD000C2028091B0019091B101892B09F08AC0C5
:100BE0008BEB91E00E940002181619060CF076C0FB
:100BF0001A8219821C821B821E821D8270E060E0B4
:100C0000CE0101960E94D50229813A81811141C00D
:100C10002115310519F0C9010E94AB071A8219820A
:100C20001E821D821C821B820E94B20197FD39C068
:100C30008A309105B1F18F831886CD80DE802FEF49
:100C4000C21AD20AB601CE0101960E94D5028823AB
:100C500059F329813A818D819E81BE01695F7F4F61
:100C6000820F931F0E94FA08DE82CD82DDCF232BF4
:100C700009F4AFCF1092B1011092B0010E94990314
:100C800061E571E088E592E00E94B30280E691E0C0
:100C90009ECF1E821D8266E271E0C9010E94FA08A1
:100CA000C3CF0E949903E1E080916B028111E0E0E3
:100CB000E195F0E0E85AFD4F848980680E94930333
:100CC0004D815E8169817A8188E592E00E946201AE
:100CD00089819A81009711F00E94AB0701151105D7
:100CE00009F45ACF0E940C02882309F455CF0E94C0
:100CF000000052CF87E00E94B500892BF1F580E714
:100D000091E00E94C202E0916B02E230A0F5E15056
:100D1000F0E0E85AFD4F848980680E94930361E8FF
:100D200071E088E592E00E94B3020E943D012B0130
:100D30003C0184EF882E99249394A12CB12C0E941D
:100D40003D016419750986099709683E734081055C
:100D50009105A8F381E0881A9108A108B10828EE4E
:100D6000420E23E0521E611C711C81149104A104E7
:100D7000B10429F7B3CFE1E0CBCF8BE891E00E943B
:100D8000C202E0916B02E23058F4E150F0E0E85A20
:100D9000FD4F848980680E94930364EA71E0C1CFAB
:100DA000E1E0F4CF2F923F924F925F926F927F9249
:100DB0008F929F92AF92BF92CF92DF92EF92FF926B
:100DC0000F931F93CF93DF93CDB7DEB7CA1BDB0B17
:100DD0000FB6F894DEBF0FBECDBF09942A883988BC
:100DE00048885F846E847D848C849B84AA84B984C3
:100DF000C884DF80EE80FD800C811B81AA81B981CF
:100E0000CE0FD11D0FB6F894DEBF0FBECDBFED01E2
:100E10000895EE0FFF1F0590F491E02D09940F93B4
:100E20001F93CF93DF938230910510F482E090E01E
:100E3000E0917202F091730230E020E0B0E0A0E0B7
:100E4000309799F42115310509F44AC0281B390B54
:100E500024303105D8F58A819B816115710589F1AE
:100E6000FB0193838283FE0111C040815181028185
:100E7000138148175907E0F04817590799F410975C
:100E800061F012960C93129713961C933296CF0131
:100E9000DF91CF911F910F910895009372021093EB
:100EA0007302F4CF2115310551F04217530738F082
:100EB000A901DB019A01BD01DF01F801C1CFEF01FA
:100EC000F9CF9093730280937202CDCFFE01E20FAF
:100ED000F31F819391932250310939832883D7CF0F
:100EE0002091700230917102232B41F42091020174
:100EF0003091030130937102209370022091000120
:100F0000309101012115310541F42DB73EB74091D3
:100F1000040150910501241B350BE0917002F09102
:100F20007102E217F307A0F42E1B3F0B28173907B5
:100F300078F0AC014E5F5F4F2417350748F04E0F35
:100F40005F1F5093710240937002819391939FCFE2
:100F5000F0E0E0E09CCFCF93DF930097E9F0FC0155
:100F6000329713821282A0917202B0917302ED0146
:100F700030E020E01097A1F420813181820F931F8F
:100F800020917002309171022817390709F061C071
:100F9000F0937102E0937002DF91CF910895EA011E
:100FA000CE17DF07E8F54A815B819E0141155105A7
:100FB000B1F7E901FB83EA8349915991C40FD51F29
:100FC000EC17FD0761F4808191810296840F951FD3
:100FD000E90199838883828193819B838A83F0E0EE
:100FE000E0E012968D919C9113970097B9F52D91A1
:100FF0003C911197CD010296820F931F20917002B0
:10100000309171022817390739F6309751F510924F
:10101000730210927202B0937102A0937002BCCF5F
:10102000D383C28340815181840F951FC817D9078C
:1010300061F44E5F5F4F88819981480F591F51833A
:1010400040838A819B81938382832115310509F036
:10105000B0CFF0937302E09372029ECFFD01DC01EA
:10106000C0CF13821282D7CFB0E0A0E0EAE3F8E06D
:101070000C94D4068C01009751F4CB010E940F0709
:101080008C01C801CDB7DEB7E0E10C94F006FC019D
:10109000E60FF71F9C0122503109E217F30708F40D
:1010A0009DC0D901CD91DC911197C617D70798F053
:1010B000C530D10530F3CE0104978617970708F3A2
:1010C000C61BD70B2297C193D1936D937C93CF010D
:1010D0000E94AB07D6CF5B01AC1ABD0A4C018C0E47
:1010E0009D1EA0917202B0917302512C412CF12CE3
:1010F000E12C109731F58091700290917102881562
:10110000990509F05CC04616570608F058C0809152
:10111000000190910101009741F48DB79EB7409175
:10112000040150910501841B950BE817F90708F09D
:1011300055C0F0937102E0937002F90171836083EE
:10114000A0CF8D919C91119712966C901297139647
:101150007C901397A815B90559F56C0142E0C40EAF
:10116000D11CCA14DB0420F1AC014A195B09DA0175
:101170001296159780F06282738251834083D90161
:101180006D937C93E114F10471F0D7011396FC93F5
:10119000EE93129776CF22968C0F9D1FF9019183C3
:1011A0008083F301EFCFF0937302E093720269CF73
:1011B0004816590608F42C017D01D3019ACFCB01C2
:1011C0000E940F077C01009749F0AE01B8010E9410
:1011D000F108C8010E94AB07870153CF10E000E07F
:1011E00050CFFB01DC0102C001900D9241505040F4
:1011F000D8F70895FB01DC0101900D920020E1F782
:061200000895F894FFCFF1
:1012060000007402800000000000420262018F01AB
:101216008F0200029E01F2010000000042046201FA
:10122600B002AF020D0A0057616974696E672066E5
:101236006F722064617461004D616E75616C204D42
:101246006F6465004D6F64653A204D616E75616C23
:10125600004175746F6D61746963204D6F6465003C
:101266004D6F64653A204175746F6D6174696300F2
:101276004D616E75616C20436C6F636B7769736546
:10128600004D616E75616C204357004D616E75614E
:101296006C20436F756E74657220436C6F636B7759
:1012A600697365004D616E75616C2043435700009C
:00000001FF
