:020000040000FA
:100000000C9462000C948A000C948A000C948A0070
:100010000C948A000C948A000C948A000C948A0038
:100020000C948A000C948A000C948A000C948A0028
:100030000C948A000C948A000C948A000C948A0018
:100040000C948C050C948A000C94FC050C94D60539
:100050000C948A000C948A000C948A000C948A00F8
:100060000C948A000C948A000000000024002700F1
:100070002A0000000000250028002B0000000000DE
:1000800023002600290004040404040404040202DA
:100090000202020203030303030301020408102007
:1000A0004080010204081020010204081020000012
:1000B0000008000201000003040700000000000027
:1000C00000002E0611241FBECFEFD8E0DEBFCDBF4B
:1000D00022E0A4ECB1E001C01D92AA38B207E1F71A
:1000E00011E0A0E0B1E0EAE4F6E102C005900D9273
:1000F000A43CB107D9F710E0C2E6D0E004C02197D4
:10010000FE010E941D09C136D107C9F70E94790678
:100110000C94230B0C940000833081F028F4813080
:1001200099F08230A9F008958730A9F08830C9F09D
:100130008430B1F4809180008F7D03C08091800075
:100140008F7780938000089584B58F7784BD08955C
:1001500084B58F7DFBCF8091B0008F778093B00006
:1001600008958091B0008F7DF9CFCF93DF93282F32
:1001700030E0F901E255FF4F8491F901E656FF4F57
:10018000D491F901EA57FF4FC491CC23A1F081111A
:100190000E948C00EC2FF0E0EE0FFF1FE458FF4FA1
:1001A000A591B491EC91ED2381E090E009F480E019
:1001B000DF91CF91089580E090E0FACF1F93CF9325
:1001C000DF93282F30E0F901E255FF4F8491F901C8
:1001D000E656FF4FD491F901EA57FF4FC491CC2363
:1001E000A9F0162F81110E948C00EC2FF0E0EE0F89
:1001F000FF1FEE58FF4FA591B4918FB7F894EC9183
:10020000111108C0D095DE23DC938FBFDF91CF9111
:100210001F910895DE2BF8CFCF93DF9390E0FC0180
:10022000E656FF4F24918A579F4FFC018491882303
:10023000D1F090E0880F991FFC01E859FF4FA5917C
:10024000B491FC01EE58FF4FC591D491623071F426
:100250009FB7F8943C91822F809583238C93E881FB
:100260002E2B28839FBFDF91CF9108958FB7F894ED
:10027000EC912E2B2C938FBFF6CF3FB7F894809143
:10028000C9019091CA01A091CB01B091CC0126B5D2
:10029000A89B05C02F3F19F00196A11DB11D3FBFBE
:1002A000BA2FA92F982F8827BC01CD01620F711D8D
:1002B000811D911D42E0660F771F881F991F4A9587
:1002C000D1F708958F929F92AF92BF92CF92DF9213
:1002D000EF92FF924B015C010E943D016B017C019A
:1002E0000E943D016C197D098E099F09683E73408B
:1002F00081059105A8F321E0821A9108A108B108AF
:1003000088EEC80E83E0D81EE11CF11C8114910414
:10031000A104B10429F7FF90EF90DF90CF90BF9038
:10032000AF909F908F900895AF92BF92CF92DF923F
:10033000EF92FF920F931F93CF93DF936C017B019A
:100340008B01040F151FEB015E01AE18BF08C0172B
:10035000D10759F06991D601ED91FC910190F0819E
:10036000E02DC6010995892B79F7C501DF91CF9161
:100370001F910F91FF90EF90DF90CF90BF90AF90C3
:100380000895FC01538D448D252F30E0842F90E09B
:10039000821B930B541710F0CF9608950197089580
:1003A000FC01918D828D981761F0A28DAE0FBF2F49
:1003B000B11D5D968C91928D9F5F9F73928F90E09F
:1003C00008958FEF9FEF08952FB7F8948091CD0196
:1003D0009091CE01A091CF01B091D0012FBF809319
:1003E000D9019093DA01A093DB01B093DC0181ED98
:1003F00091E00E94D00197FF26C02FB7F89480911A
:10040000CD019091CE01A091CF01B091D0012FBF2D
:100410004091D9015091DA016091DB017091DC01CA
:10042000841B950BA60BB70B4091D5015091D601BB
:100430006091D7017091D80184179507A607B70777
:10044000B0F28FEF9FEF0895FC01918D828D981788
:1004500031F0828DE80FF11D858D90E008958FEFCA
:100460009FEF0895FC01918D228D892F90E0805C93
:100470009F4F821B91098F739927089581ED91E019
:100480000E94320221E0892B09F420E0822F089596
:1004900080E090E0892B29F00E943E0281110C94AB
:1004A00000000895FC01A48DA80FB92FB11DA35A17
:1004B000BF4F2C91848D90E001968F739927848F84
:1004C000A689B7892C93A089B1898C9183708064A7
:1004D0008C93938D848D981306C00288F389E02D48
:1004E00080818F7D80830895EF92FF920F931F93F9
:1004F000CF93DF93EC0181E0888F9B8D8C8D9813D7
:100500001AC0E889F989808185FF15C09FB7F894E2
:10051000EE89FF896083E889F9898081837080642E
:1005200080839FBF81E090E0DF91CF911F910F9179
:10053000FF90EF900895F62E0B8D10E00F5F1F4F88
:100540000F731127E02E8C8D8E110CC00FB607FC97
:10055000FACFE889F989808185FFF5CFCE010E9425
:100560005202F1CFEB8DEC0FFD2FF11DE35AFF4F3F
:10057000F0829FB7F8940B8FEA89FB8980818062B3
:10058000CFCF682F81ED91E00C947402CF93DF936D
:10059000EC01888D8823B9F0AA89BB89E889F9899B
:1005A0008C9185FD03C0808186FD0DC00FB607FCD0
:1005B000F7CF8C9185FFF2CF808185FFEDCFCE0103
:1005C0000E945202E9CFDF91CF910895089590E003
:1005D00080E008958F929F92AF92BF920F931F93E6
:1005E000CF93DF93CDB7DEB7A1970FB6F894DEBFF8
:1005F0000FBECDBF19A2423008F44AE08E010F5D54
:100600001F4F842E912CB12CA12CA50194010E9486
:10061000FB08E62FB901CA01EA3044F5E05DD801D4
:10062000EE938D01232B242B252B79F790E080E08E
:10063000109769F0FD0101900020E9F73197AF01B3
:100640004A1B5B0BBD018EE692E00E949401A196CD
:100650000FB6F894DEBF0FBECDBFDF91CF911F91D3
:100660000F91BF90AF909F908F900895E95CD7CF86
:10067000FC0101900020E9F73197AF01481B590BAD
:10068000BC018EE692E00C949401CF93DF93EC01D1
:1006900060E08E810E94DE0061E08E810E94DE00BB
:1006A00060E08E810E94DE008BE891E00197F1F717
:1006B000DF91CF910895CF92DF92EF92FF920F9347
:1006C0001F93CF93DF936C017C0187E0E80EF11C50
:1006D000D0E0C0E0062F10E0B8010C2E02C07595E6
:1006E00067950A94E2F76170F70181917F010E949A
:1006F000DE002196C430D10579F7C601DF91CF9194
:100700001F910F91FF90EF90DF90CF900C944503D5
:10071000CF92DF92EF92FF920F931F93CF93DF93CD
:10072000EC01F62E642F8C810E94DE008D818F3FBC
:1007300019F060E00E94DE000F2D10E08F8584FF2D
:1007400025C06E0187E0C80ED11CF12CE12CB80148
:100750000E2C02C0759567950A94E2F76170F60158
:1007600081916F010E94DE00FFEFEF1AFF0A88E01F
:10077000E816F10461F7CE01DF91CF911F910F913F
:10078000FF90EF90DF90CF900C944503B80184E088
:10079000759567958A95E1F7CE010E945B036F2DF1
:1007A000CE01DF91CF911F910F91FF90EF90DF90DD
:1007B000CF900C945B0340E0682F8EE692E00C949F
:1007C0008803CF93DF93613029F090917D02986088
:1007D00090937D02609381021092820290E4909344
:1007E000830280938402805C8093850261E0809123
:1007F00072020E940C01809173028F3F19F061E038
:100800000E940C0161E0809174020E940C01CEE60E
:10081000D2E09E012E56324080917D0284FD0BC0B5
:1008200084E090E021962817390744F461E08E8136
:100830000E940C01EECF88E090E0F4CF8BE39DE0C6
:100840000197F1F760E0809172020E94DE0060E0A3
:10085000809174020E94DE00809173028F3F19F034
:1008600060E00E94DE0080917D0284FD39C063E07B
:100870008EE692E00E945B03CBE4D6E4CE010197C2
:10088000F1F763E08EE692E00E945B032197F1F7B7
:1008900063E08EE692E00E945B0383E592E00197BD
:1008A000F1F762E08EE692E00E945B0380917D02A8
:1008B00080620E94DB0384E080937E028CE00E94D1
:1008C000DB0381E00E94DB038BE39FE10197F1F7FB
:1008D00082E080937F0286E0DF91CF910C94DB036E
:1008E00080620E94DB038BE496E40197F1F780912C
:1008F0007D0280620E94DB0383E592E00197F1F7BD
:1009000080917D0280620E94DB03D0CF90918102B2
:10091000891710F08FEF890FE82FF0E0E259FD4FB3
:10092000848980680C94DB0341E00E94880381E0A5
:1009300090E00895FB0144815581FC0124813581BB
:100940002417350778F080819181009759F0FB01D9
:10095000608171816115710529F00E94150B21E0FC
:10096000892B09F020E0822F08950F931F93CF93D6
:10097000DF93EC0188819981009759F02A813B81AE
:100980002617370730F081E0DF91CF911F910F914B
:1009900008958B016F5F7F4F0E94480A009759F0BE
:1009A000998388831B830A832C813D81232B59F7EC
:1009B000FC011082E8CF80E0E7CFCF93DF93EC011A
:1009C00088819981009711F00E94BF0919821882CD
:1009D0001D821C821B821A82DF91CF910895EF92B3
:1009E000FF920F931F93CF93DF938C017B01EB0159
:1009F00009900020E9F72197C61BD70BBE010E9482
:100A0000B504811109C0C801DF91CF911F910F91E9
:100A1000FF90EF900C94DD04F801D583C483B701F7
:100A200080819181DF91CF911F910F91FF90EF9085
:100A30000C940E0B9F92AF92BF92CF92DF92EF92E7
:100A4000FF920F931F93CF93DF93EC016B015A0139
:100A500082E0E82EF12C4230510520F47A0192E038
:100A6000A92EB12C198218821B821A821D821C8227
:100A700062EC71E0CE010E94EF04D60114960D9154
:100A80001C91E016F10658F5A016B10608F4850190
:100A9000D601ED91FC911197E00FF11F908010822B
:100AA0008D919C91E80EF91EE114F10471F0F701AB
:100AB00001900020E9F731975F01AE18BF08B5013A
:100AC000CE010E94B504811117C0CE010E94DD0441
:100AD000F60180819181080F191FD8019C92CE01E7
:100AE000DF91CF911F910F91FF90EF90DF90CF900A
:100AF000BF90AF909F900895BD82AC82B70188816E
:100B000099810E940E0BE4CFFC01808191810097B6
:100B100011F00C94BF0908951F920F920FB60F9217
:100B200011242F933F938F939F93AF93BF93809103
:100B3000CD019091CE01A091CF01B091D001309123
:100B4000C80123E0230F2D3758F50196A11DB11DD3
:100B50002093C8018093CD019093CE01A093CF0143
:100B6000B093D0018091C9019091CA01A091CB01AD
:100B7000B091CC010196A11DB11D8093C901909344
:100B8000CA01A093CB01B093CC01BF91AF919F91CB
:100B90008F913F912F910F900FBE0F901F9018953E
:100BA00026E8230F0296A11DB11DD2CF1F920F92EE
:100BB0000FB60F9211242F933F934F935F936F9330
:100BC0007F938F939F93AF93BF93EF93FF9381EDA9
:100BD00091E00E945202FF91EF91BF91AF919F91DE
:100BE0008F917F916F915F914F913F912F910F90D6
:100BF0000FBE0F901F9018951F920F920FB60F9275
:100C000011242F938F939F93EF93FF93E091E10132
:100C1000F091E2018081E091E701F091E80182FD2D
:100C20001BC090818091EA018F5F8F732091EB014F
:100C3000821741F0E091EA01F0E0EF52FE4F958F0C
:100C40008093EA01FF91EF919F918F912F910F90E7
:100C50000FBE0F901F9018958081F4CFE1EDF1E069
:100C60001382128288EE93E0A0E0B0E08483958343
:100C7000A683B7838CE091E09183808385EC90E03C
:100C80009587848784EC90E09787868780EC90E056
:100C9000918B808B81EC90E0938B828B82EC90E047
:100CA000958B848B86EC90E0978B868B118E128EC1
:100CB000138E148EEEE6F2E0138212828EE191E042
:100CC000918380838CE084838FEF85838BE08683A0
:100CD00085E0878384E0808783E0818782E0828764
:100CE0001386148615861686178661E080E10C94BB
:100CF000E103CF93DF93CDB7DEB72C970FB6F8940F
:100D0000DEBF0FBECDBF789484B5826084BD84B54C
:100D1000816084BD85B5826085BD85B5816085BDF6
:100D200080916E00816080936E00109281008091AE
:100D30008100826080938100809181008160809336
:100D40008100809180008160809380008091B1005B
:100D500084608093B1008091B00081608093B00086
:100D600080917A00846080937A0080917A0082601A
:100D700080937A0080917A00816080937A008091DC
:100D80007A00806880937A001092C10062E086E069
:100D90000E940C0162E087E00E940C0162E088E0A2
:100DA0000E940C0164E084E10E94E10386E291E08C
:100DB0000E943803E091E101F091E20182E080833A
:100DC000E091DD01F091DE011082E091DF01F09110
:100DD000E0018FEC80831092E901E091E501F09150
:100DE000E60186E08083E091E301F091E4018081F7
:100DF00080618083E091E301F091E401808188606B
:100E00008083E091E301F091E40180818068808338
:100E1000E091E301F091E40180818F7D808300E027
:100E200010E086E00E94B500892B51F483E490E045
:100E30000E94C10268EC70E080E090E00E946201D4
:100E400087E00E94B500892B51F481E490E00E9474
:100E5000C10268EC70E080E090E00E94620188E0EE
:100E60000E94B5007C012FB7F8948091CD0190913C
:100E7000CE01A091CF01B091D0012FBFE114F104B8
:100E800029F54091C4015091C5016091C60170914E
:100E9000C7015C016D01A41AB50AC60AD70AB601DA
:100EA000A501483E53406105710580F08093C4015F
:100EB0009093C501A093C601B093C70182E590E06D
:100EC0000E94C1028CE490E00E94C10281ED91E099
:100ED0000E943202181619060CF008C118861F82EB
:100EE0001A8619861C861B8662EC71E0CE01079675
:100EF0000E94EF040E94E40197FD1FC08A30910513
:100F0000E1F089831A82CB84DC848FEFC81AD80A77
:100F1000B601CE0107960E94B504882359F32F81AC
:100F200038858B859C85BE016F5F7F4F820F931F35
:100F30000E940E0BDC86CB86DDCF1A8219821C82C2
:100F40001B821E821D8269E371E0CE0101960E9420
:100F5000EF04BE016F5F7F4FCE0107960E949A0497
:100F6000D82ECE0101960E948405DD2009F44BC0E5
:100F70004B855C85BE01695F7F4FCE0101960E9463
:100F80001A0589819A81C12CD12C7601009719F01C
:100F90000E9488086B01CE0101960E94840582E0C0
:100FA0000E9486048CE391E00E9438030D2C000C13
:100FB000EE08FF084AE0C701B601F7FE0EC041E0A7
:100FC0006DE28EE692E00E94880366277727CB01C8
:100FD0006C197D098E099F094AE00E94EA028DEB97
:100FE00091E00E943803CE0107960E948405011506
:100FF000110509F416CF0E943E02882309F411CF8F
:101000000E9400000ECF1A8219821C821B821E824F
:101010001D8262E471E0CE0101960E94EF04BE01E0
:101020006F5F7F4FCE0107960E949A04D82ECE01A3
:1010300001960E948405DD20B1F24B855C85BE01DE
:10104000695F7F4FCE0101960E941A0589819A81BE
:10105000009709F440C00E9488086B01CE010196F8
:101060000E94840581E00E94860485E491E021E0ED
:10107000C216D10411F085E591E00E943803EF28F3
:1010800009F0B1CF8091000190910101C816D906F5
:1010900009F4A9CF83E00E94860481E0C816D10438
:1010A000F1F481E490E00E94C10285E691E00E94A3
:1010B000380360ED77E080E090E00E94620183E019
:1010C0000E9486048BE791E00E943803D0920101D0
:1010D000C092000188CF60E070E0CB01BECF83E416
:1010E00090E00E94C1028CE891E0E1CFEF2809F482
:1010F0007ECF81E00E94860482EA91E00E9438035C
:1011000083E00E9486048EEA91E00E9438036FCF4C
:101110001F93FC0199278827BC01E8941191103294
:10112000E9F3193010F01E30C8F31B3251F01D32B4
:1011300049F4689406C00E94AF08610F711D811DBB
:10114000911D119110531A30B0F33EF49095809593
:10115000709561957F4F8F4F9F4F1F910895592F25
:10116000482F372F262F660F771F881F991F660F6E
:10117000771F881F991F620F731F841F951F660FAB
:10118000771F881F991F08952F923F924F925F9269
:101190006F927F928F929F92AF92BF92CF92DF9287
:1011A000EF92FF920F931F93CF93DF93CDB7DEB7EC
:1011B000CA1BDB0B0FB6F894DEBF0FBECDBF099480
:1011C0002A88398848885F846E847D848C849B84D7
:1011D000AA84B984C884DF80EE80FD800C811B81E5
:1011E000AA81B981CE0FD11D0FB6F894DEBF0FBE14
:1011F000CDBFED010895A1E21A2EAA1BBB1BFD0174
:101200000DC0AA1FBB1FEE1FFF1FA217B307E407E5
:10121000F50720F0A21BB30BE40BF50B661F771F3D
:10122000881F991F1A9469F760957095809590951D
:101230009B01AC01BD01CF010895EE0FFF1F05908A
:10124000F491E02D09940F931F93CF93DF93823095
:10125000910510F482E090E0E0918802F09189021B
:1012600030E020E0B0E0A0E0309799F4211531059E
:1012700009F44AC0281B390B24303105D8F58A817E
:101280009B816115710589F1FB0193838283FE01C6
:1012900011C0408151810281138148175907E0F044
:1012A0004817590799F4109761F012960C9312970A
:1012B00013961C933296CF01DF91CF911F910F911E
:1012C00008950093880210938902F4CF2115310507
:1012D00051F04217530738F0A901DB019A01BD0113
:1012E000DF01F801C1CFEF01F9CF9093890280931C
:1012F0008802CDCFFE01E20FF31F8193919322501C
:10130000310939832883D7CF209186023091870213
:10131000232B41F420910401309105013093870281
:10132000209386022091020130910301211531059D
:1013300041F42DB73EB74091060150910701241B9F
:10134000350BE0918602F0918702E217F307A0F4D3
:101350002E1B3F0B2817390778F0AC014E5F5F4F0B
:101360002417350748F04E0F5F1F509387024093B4
:101370008602819391939FCFF0E0E0E09CCFCF93E2
:10138000DF930097E9F0FC01329713821282A0915B
:101390008802B0918902ED0130E020E01097A1F4BD
:1013A00020813181820F931F209186023091870224
:1013B0002817390709F061C0F0938702E09386028D
:1013C000DF91CF910895EA01CE17DF07E8F54A8152
:1013D0005B819E0141155105B1F7E901FB83EA8369
:1013E00049915991C40FD51FEC17FD0761F4808115
:1013F00091810296840F951FE901998388838281E8
:1014000093819B838A83F0E0E0E012968D919C911A
:1014100013970097B9F52D913C911197CD01029644
:10142000820F931F20918602309187022817390777
:1014300039F6309751F51092890210928802B093D4
:101440008702A0938602BCCFD383C283408151819F
:10145000840F951FC817D90761F44E5F5F4F8881CD
:101460009981480F591F518340838A819B819383BF
:1014700082832115310509F0B0CFF0938902E09302
:1014800088029ECFFD01DC01C0CF13821282D7CF2C
:10149000B0E0A0E0EEE4FAE00C94C6088C010097FE
:1014A00051F4CB010E9423098C01C801CDB7DEB7EE
:1014B000E0E10C94E208FC01E60FF71F9C012250CA
:1014C0003109E217F30708F49DC0D901CD91DC91F1
:1014D0001197C617D70798F0C530D10530F3CE0164
:1014E00004978617970708F3C61BD70B2297C1935B
:1014F000D1936D937C93CF010E94BF09D6CF5B013E
:10150000AC1ABD0A4C018C0E9D1EA0918802B091B0
:101510008902512C412CF12CE12C109731F580914E
:101520008602909187028815990509F05CC04616DD
:10153000570608F058C0809102019091030100976E
:1015400041F48DB79EB74091060150910701841B6D
:10155000950BE817F90708F055C0F0938702E09360
:101560008602F90171836083A0CF8D919C911197C0
:1015700012966C90129713967C901397A815B90544
:1015800059F56C0142E0C40ED11CCA14DB0420F1F1
:10159000AC014A195B09DA011296159780F0628254
:1015A000738251834083D9016D937C93E114F104DC
:1015B00071F0D7011396FC93EE93129776CF229693
:1015C0008C0F9D1FF90191838083F301EFCFF0937E
:1015D0008902E093880269CF4816590608F42C0165
:1015E0007D01D3019ACFCB010E9423097C01009792
:1015F00049F0AE01B8010E94050BC8010E94BF0965
:10160000870153CF10E000E050CFFB01DC0102C0A6
:1016100001900D9241505040D8F70895FB01DC0134
:1016200001900D920020E1F70895FB01DC0141508B
:10163000504030F08D910190801919F40020B9F7D5
:10164000881B990B0895F894FFCFFFFF00008A02D2
:1016500080000000000074029401C101C602320241
:10166000D00124020000000094049401E702E60285
:10167000445259494E47205241434B2053595354E9
:10168000454D004C3A004C44523A2000523A005228
:1016900041494E494E472020202020202020004E46
:1016A0004F54205241494E494E47202020200043AC
:1016B00043572020202020202020202020202020D0
:1016C0002020202000414354494F4E20434F4D508D
:1016D0004C45544520004357202020202020202026
:1016E0002020202020202020202020004D414E5569
:1016F000414C204D4F444500202020202020202018
:0E17000020202020202020202020202000005B
:107E0000112484B714BE81FFF0D085E080938100F7
:107E100082E08093C00088E18093C10086E0809377
:107E2000C20080E18093C4008EE0C9D0259A86E02C
:107E300020E33CEF91E0309385002093840096BBD3
:107E4000B09BFECF1D9AA8958150A9F7CC24DD24C4
:107E500088248394B5E0AB2EA1E19A2EF3E0BF2EE7
:107E6000A2D0813461F49FD0082FAFD0023811F036
:107E7000013811F484E001C083E08DD089C08234E0
:107E800011F484E103C0853419F485E0A6D080C0E4
:107E9000853579F488D0E82EFF2485D0082F10E0AE
:107EA000102F00270E291F29000F111F8ED06801E7
:107EB0006FC0863521F484E090D080E0DECF843638
:107EC00009F040C070D06FD0082F6DD080E0C81688
:107ED00080E7D80618F4F601B7BEE895C0E0D1E017
:107EE00062D089930C17E1F7F0E0CF16F0E7DF06D8
:107EF00018F0F601B7BEE89568D007B600FCFDCFD4
:107F0000A601A0E0B1E02C9130E011968C91119780
:107F100090E0982F8827822B932B1296FA010C0160
:107F200087BEE89511244E5F5F4FF1E0A038BF0790
:107F300051F7F601A7BEE89507B600FCFDCF97BE46
:107F4000E89526C08437B1F42ED02DD0F82E2BD052
:107F50003CD0F601EF2C8F010F5F1F4F84911BD097
:107F6000EA94F801C1F70894C11CD11CFA94CF0C13
:107F7000D11C0EC0853739F428D08EE10CD085E9AC
:107F80000AD08FE07ACF813511F488E018D01DD067
:107F900080E101D065CF982F8091C00085FFFCCF94
:107FA0009093C60008958091C00087FFFCCF809118
:107FB000C00084FD01C0A8958091C6000895E0E648
:107FC000F0E098E1908380830895EDDF803219F02E
:107FD00088E0F5DFFFCF84E1DECF1F93182FE3DFCA
:107FE0001150E9F7F2DF1F91089580E0E8DFEE27F6
:047FF000FF270994CA
:027FFE00040479
:00000001FF
