:020000040000FA
:100000000C9462000C948A000C948A000C948A0070
:100010000C948A000C948A000C948A000C948A0038
:100020000C948A000C948A000C948A000C948A0028
:100030000C948A000C948A000C948A000C948A0018
:100040000C9432050C948A000C94A2050C947C0547
:100050000C948A000C948A000C948A000C948A00F8
:100060000C948A000C948A000000000023002600F3
:10007000290000000000240027002A0000000000E2
:10008000250028002B0004040404040404040202D4
:100090000202020203030303030301020408102007
:1000A0004080010204081020010204081020000012
:1000B0000008000201000003040700000000000027
:1000C0000000D40511241FBECFEFD8E0DEBFCDBFA6
:1000D00022E0A2E2B2E001C01D92AC3EB207E1F71D
:1000E00012E0A0E0B1E0EEE8F6E102C005900D926A
:1000F000A232B107D9F710E0C2E6D0E004C02197E0
:10010000FE010E940009C136D107C9F70E943906D5
:100110000C94450B0C940000833081F028F481305E
:1001200099F08230A9F008958730A9F08830C9F09D
:100130008430B1F4809180008F7D03C08091800075
:100140008F7780938000089584B58F7784BD08955C
:1001500084B58F7DFBCF8091B0008F778093B00006
:1001600008958091B0008F7DF9CF1F93CF93DF93D7
:10017000282F30E0F901E255FF4F8491F901E6564E
:10018000FF4FD491F901EA57FF4FC491CC23A9F056
:10019000162F81110E948C00EC2FF0E0EE0FFF1F54
:1001A000E458FF4FA591B4918FB7F894EC911111D9
:1001B00008C0D095DE23DC938FBFDF91CF911F91D4
:1001C0000895DE2BF8CFCF93DF93EC018091D60218
:1001D0009091D702029749F4C130D10509F43BC090
:1001E0006CF560E0209709F437C08091D6029091B9
:1001F000D702049749F4C130D10509F45CC00CF072
:1002000037C0209709F442C08091D6029091D7025E
:10021000059709F0E5C0CA30D10508F0E1C0FE013C
:10022000EC5EFE4F0C94000973017F019001A60162
:10023000C101C301CA01D601E701EE01C230D105F7
:10024000A9F060E0C330D10581F68091DA020E9406
:10025000B50060E006C061E08091DA020E94B5005E
:1002600061E08091DC020E94B500BFCF61E0EDCF7C
:10027000C230D10539F1C330D10509F0C5CF61E0F5
:100280008091DA020E94B50060E022C061E08091B6
:10029000DA020E94B50060E08091DC020E94B500A5
:1002A00061E08091DE020E94B50060E08091E00292
:1002B0000E94B500A9CF60E08091DA020E94B500EB
:1002C00061E0EACF60E08091DA020E94B50061E06F
:1002D0008091DC020E94B50060E08091DE020E9405
:1002E000B50061E0E3CF60E08091DA020E94B500E2
:1002F00061E08091DC020E94B50061E00BC060E02B
:100300008091DA020E94B50061E08091DC020E94D7
:10031000B50060E08091DE020E94B50060E010C090
:1003200060E08091DA020E94B50061E08091DC0219
:100330000E94B50060E08091DE020E94B50061E09D
:100340008091E0020E94B50061E015C060E08091FC
:10035000DA020E94B50061E08091DC020E94B500E3
:1003600060E08091DE020E94B50061E08091E002D1
:100370000E94B50060E08091E202DF91CF910C9481
:10038000B50061E0E4CF61E08091DA020E94B5003F
:1003900060E0E2CF61E08091DA020E94B50060E0A7
:1003A0008091DC020E94B50061E0DBCF61E08091CA
:1003B000DA020E94B50060E08091DC020E94B50084
:1003C00061E08091DE020E94B50060E0CFCF61E085
:1003D0008091DA020E94B50060E08BCF60E0F8CF38
:1003E000DF91CF910895CF93DF9390E0FC01E65623
:1003F000FF4F24918A579F4FFC0184918823D1F0AD
:1004000090E0880F991FFC01EE58FF4FA591B49121
:10041000FC01E458FF4FC591D49161110EC09FB704
:10042000F8948C91E22FE0958E238C932881E2231F
:10043000E8839FBFDF91CF9108958FB7F894EC9137
:10044000E22BEC938FBFF6CF3FB7F894809129024F
:1004500090912A02A0912B02B0912C0226B5A89B64
:1004600005C02F3F19F00196A11DB11D3FBFBA2F46
:10047000A92F982F8827BC01CD01620F711D811D06
:10048000911D42E0660F771F881F991F4A95D1F78B
:1004900008954F925F926F927F928F929F92AF9248
:1004A000BF92EF92FF920F931F93CF93DF93EC01D4
:1004B00097FF04C0CC27DD27C81BD90B18161906D7
:1004C0000CF061C081E090E09093CF028093CE0267
:1004D00004E010E08AE0E82EF12C209709F46FC0C8
:1004E0000E9424028090E4029090E502A090E6022F
:1004F000B090E7022B013C01481859086A087B08B4
:100500008090D0029090D102A090D202B090D302FD
:10051000481459046A047B0400F36093E402709366
:10052000E5028093E6029093E7028091D8029091D1
:10053000D9022091CE023091CF022130310559F5F8
:1005400001969093D9028093D8022091D4023091E1
:10055000D5028217930721F41092D9021092D80283
:1005600021978091D8029091D9022091D6023091A2
:10057000D702B7012530310509F0B8010E94CD0836
:100580000E94E300AACF892B09F4A2CF1092CF02D8
:100590001092CE029DCF892B41F48091D40290918C
:1005A000D5029093D9028093D8028091D80290917D
:1005B000D90201979093D9028093D802D1CFDF91CD
:1005C000CF911F910F91FF90EF90BF90AF909F90B0
:1005D0008F907F906F905F904F9008958F929F9231
:1005E000AF92BF92CF92DF92EF92FF924B015C01EC
:1005F0000E9424026B017C010E9424026C197D0977
:100600008E099F09683E734081059105A8F321E09A
:10061000821A9108A108B10888EEC80E83E0D81E9E
:10062000E11CF11C81149104A104B10429F7FF908D
:10063000EF90DF90CF90BF90AF909F908F900895F4
:10064000AF92BF92CF92DF92EF92FF920F931F93E0
:10065000CF93DF936C017B018B01040F151FEB011E
:100660005E01AE18BF08C017D10759F06991D601D5
:10067000ED91FC910190F081E02DC6010995892B47
:1006800079F7C501DF91CF911F910F91FF90EF9006
:10069000DF90CF90BF90AF900895FC01538D448DB3
:1006A000252F30E0842F90E0821B930B541710F01D
:1006B000CF96089501970895FC01918D828D98172A
:1006C00061F0A28DAE0FBF2FB11D5D968C91928D02
:1006D0009F5F9F73928F90E008958FEF9FEF089533
:1006E0002FB7F89480912D0290912E02A0912F02A5
:1006F000B09130022FBF8093390290933A02A093B9
:100700003B02B0933C0281E392E00E945C0397FFBE
:1007100026C02FB7F89480912D0290912E02A091BF
:100720002F02B09130022FBF4091390250913A020E
:1007300060913B0270913C02841B950BA60BB70B9A
:100740004091350250913602609137027091380223
:1007500084179507A607B707B0F28FEF9FEF0895AC
:10076000FC01918D828D981731F0828DE80FF11D7B
:10077000858D90E008958FEF9FEF0895FC01918D96
:10078000228D892F90E0805C9F4F821B91098F738F
:100790009927089581E392E00E94BE0321E0892B0E
:1007A00009F420E0822F089580E090E0892B29F061
:1007B0000E94CA0381110C9400000895FC01A48DCD
:1007C000A80FB92FB11DA35ABF4F2C91848D90E073
:1007D00001968F739927848FA689B7892C93A08956
:1007E000B1898C91837080648C93938D848D9813E0
:1007F00006C00288F389E02D80818F7D8083089573
:10080000EF92FF920F931F93CF93DF93EC0181E060
:10081000888F9B8D8C8D98131AC0E889F989808107
:1008200085FF15C09FB7F894EE89FF896083E8893A
:10083000F98980818370806480839FBF81E090E02C
:10084000DF91CF911F910F91FF90EF900895F62EB9
:100850000B8D10E00F5F1F4F0F731127E02E8C8D53
:100860008E110CC00FB607FCFACFE889F989808198
:1008700085FFF5CFCE010E94DE03F1CFEB8DEC0FAB
:10088000FD2FF11DE35AFF4FF0829FB7F8940B8FB5
:10089000EA89FB8980818062CFCFCF93DF93EC011F
:1008A000888D8823B9F0AA89BB89E889F9898C9158
:1008B00085FD03C0808186FD0DC00FB607FCF7CF14
:1008C0008C9185FFF2CF808185FFEDCFCE010E9414
:1008D000DE03E9CFDF91CF910895CF93DF93FC0141
:1008E00001900020E9F73197AF01481B590BBC017B
:1008F00081E392E00E942003EC0142E050E068E1D5
:1009000071E081E392E00E9420038C0F9D1FDF9134
:10091000CF9108958BE191E00E946D048CEE9FEFE2
:100920000E94490264E670E080E090E00C94EE02E0
:1009300086E391E00E946D0484E190E00E94490208
:1009400064E670E080E090E00C94EE02FC0124810B
:100950003581FB014481558124173507A0F0FC0146
:1009600080819181009779F0FB016081718161152F
:10097000710549F0241B350B820F931F0E94270B32
:1009800021E0892B09F020E0822F0895FC0180816D
:100990009181009711F00C94D80908950F931F933B
:1009A000CF93DF93EC0188819981009759F02A81D8
:1009B0003B812617370730F081E0DF91CF911F91FF
:1009C0000F9108958B016F5F7F4F0E94610A00971E
:1009D00059F0998388831B830A832C813D81232BC3
:1009E00059F7FC011082E8CF80E0E7CFEF92FF9249
:1009F0000F931F93CF93DF93EC017B011982188231
:100A00001B821A821D821C82FB0101900020E9F7E3
:100A100031978F01061B170BB8010E94CE04288165
:100A20003981811113C02115310519F0C9010E94C6
:100A3000D809198218821D821C821B821A82DF91BA
:100A4000CF911F910F91FF90EF9008951D830C831C
:100A5000B701C901DF91CF911F910F91FF90EF90E6
:100A60000C94300B1F920F920FB60F9211242F93FC
:100A70003F938F939F93AF93BF9380912D0290915B
:100A80002E02A0912F02B09130023091280223E073
:100A9000230F2D3758F50196A11DB11D2093280273
:100AA00080932D0290932E02A0932F02B0933002D8
:100AB0008091290290912A02A0912B02B0912C02E0
:100AC0000196A11DB11D8093290290932A02A09343
:100AD0002B02B0932C02BF91AF919F918F913F91C8
:100AE0002F910F900FBE0F901F90189526E8230F9F
:100AF0000296A11DB11DD2CF1F920F920FB60F9279
:100B000011242F933F934F935F936F937F938F9312
:100B10009F93AF93BF93EF93FF9381E392E00E9483
:100B2000DE03FF91EF91BF91AF919F918F917F91E4
:100B30006F915F914F913F912F910F900FBE0F904A
:100B40001F9018951F920F920FB60F9211242F939A
:100B50008F939F93EF93FF93E0914102F0914202B4
:100B60008081E0914702F091480282FD1BC0908194
:100B700080914A028F5F8F7320914B02821741F060
:100B8000E0914A02F0E0EF5CFD4F958F80934A02BE
:100B9000FF91EF919F918F912F910F900FBE0F902A
:100BA0001F9018958081F4CFCF93DF93E1E3F2E0BB
:100BB0001382128288EE93E0A0E0B0E084839583F4
:100BC000A683B7838AE091E09183808385EC90E0EF
:100BD0009587848784EC90E09787868780EC90E007
:100BE000918B808B81EC90E0938B828B82EC90E0F8
:100BF000958B848B86EC90E0978B868B118E128E72
:100C0000138E148ECEECD2E01B861A8619821882BF
:100C10001E8A1F8A188E198E84E190E09F838E832E
:100C20008FE090E09D878C8780E190E09F878E87A2
:100C300081E190E0998B888B82E190E09B8B8A8B9D
:100C400061E08FE00E94F30161E08E850E94F30174
:100C500061E088890E94F30161E08A890E94F301C2
:100C60001D8A1C8A84E090E099878887DF91CF9164
:100C70000895CF93DF93CDB7DEB72C970FB6F894D6
:100C8000DEBF0FBECDBF789484B5826084BD84B5CD
:100C9000816084BD85B5826085BD85B5816085BD77
:100CA00080916E00816080936E001092810080912F
:100CB00081008260809381008091810081608093B7
:100CC0008100809180008160809380008091B100DC
:100CD00084608093B1008091B00081608093B00007
:100CE00080917A00846080937A0080917A0082609B
:100CF00080937A0080917A00816080937A0080915D
:100D00007A00806880937A001092C10060E082E0EF
:100D10000E94F30161E08FE00E94F30161E080E155
:100D20000E94F30161E081E10E94F30161E082E150
:100D30000E94F30161E08DE00E94F30160E08DE02C
:100D40000E94B5002091D4023091D502032E000CF0
:100D5000440B550B60E077E883E993E00E94E108DB
:100D6000CA01B9012CE330E040E050E00E94E10804
:100D70002093D0023093D1024093D2025093D302F9
:100D8000E0914102F091420282E08083E0913D02D5
:100D9000F0913E021082E0913F02F09140028FEC10
:100DA000808310924902E0914502F091460286E06C
:100DB0008083E0914302F0914402808180618083CE
:100DC000E0914302F0914402808188608083E09149
:100DD0004302F0914402808180688083E091430265
:100DE000F091440280818F7D80836CE9262E60E043
:100DF000362E78E8872E70E0972ECC24C394D12C21
:100E000050E0A52E50E0B52E81E392E00E94BE0393
:100E1000181619060CF08AC018861F821A861986C1
:100E20001C861B8670E060E0CE0107960E94CE040F
:100E30002F81388581112EC02115310519F0C90186
:100E40000E94D80918861F821C861B861A8619865E
:100E50000E94700397FD26C08A30910519F189839D
:100E60001A820B851C850F5F1F4FB801CE010796B4
:100E70000E94CE04882361F32F8138858B859C8561
:100E8000BE016F5F7F4F820F931F0E94300B1C8744
:100E90000B87DECF1C861B866AE171E0C9010E94C8
:100EA000300BD6CF69E471E0CE0101960E94F604C2
:100EB0004D815E818B859C858417950770F08F81AD
:100EC0009885009751F069817A816115710529F043
:100ED0000E94370B11E0892B09F010E0CE0101963A
:100EE0000E94C604112309F4CEC06FE471E0CE0164
:100EF00001960E94F604BE016F5F7F4FCE010796F8
:100F00000E94A604182FCE0101960E94C604112348
:100F100009F49DC0D0922702C092260286E591E096
:100F20000E946D04CE0107960E94C604809126029D
:100F300090912702892B09F0EDC0E0EBF0E084915D
:100F4000F1011491F4010491002309F4C7C0811147
:100F50000E948C00E02FF0E0EE0FFF1FE859FF4FDA
:100F6000A591B4918C91182391E080E009F490E070
:100F7000092F182FF0E4F0937C0080917A008064B0
:100F800080937A0080917A0086FDFCCF20917800D2
:100F900030917900902F917081E0253F41E0340736
:100FA0000CF480E00130110509F49BC0253F31406D
:100FB0000CF497C0EE24E394F12C209125029213B7
:100FC0000CC020912402821308C02091220230918B
:100FD00023022E153F0509F497C0909325028093B4
:100FE0002402F0922302E092220289E092E0F2E0F1
:100FF000EF16F10411F081E192E00E946D048FB7C9
:10100000F89440902D0250902E0260902F02709024
:1010100030028FBF2FB7F89480912D0290912E024D
:10102000A0912F02B09130022FBF84199509A60913
:10103000B70988389341A105B10508F059C042E0CD
:10104000E416F10409F051C00E948A04E3CF6EE671
:1010500071E0CE0101960E94F604BE016F5F7F4FE2
:10106000CE0107960E94A604182FCE0101960E9479
:10107000C604112309F456CF1092270210922602BB
:1010800088E791E04DCF8091260290912702019749
:1010900009F048CF8B859C85892B09F443CF0F81BC
:1010A000188563E971E0C8010E94270B892B39F488
:1010B00084EA91E00E946D040E94980433CF66ECAC
:1010C00071E0C8010E94270B892B09F02BCF8FED0F
:1010D00091E00E946D040E948A0424CF10E000E099
:1010E00049CF22E0E22EF12C68CF0E94980492CFE3
:1010F00090E080E00E94490261E00130110509F0B2
:1011000060E08DE00E94B50068EE73E080E090E062
:101110000E94EE02A114B10409F476CE0E94CA0323
:10112000882309F46DCE0E9400006ACE2F923F9270
:101130004F925F926F927F928F929F92AF92BF92E7
:10114000CF92DF92EF92FF920F931F93CF93DF9393
:10115000CDB7DEB7CA1BDB0B0FB6F894DEBF0FBEF0
:10116000CDBF09942A88398848885F846E847D843D
:101170008C849B84AA84B984C884DF80EE80FD803F
:101180000C811B81AA81B981CE0FD11D0FB6F894B5
:10119000DEBF0FBECDBFED01089597FB072E16F4FD
:1011A000009407D077FD09D00E94060907FC05D0FE
:1011B0003EF4909581959F4F0895709561957F4F6E
:1011C0000895052E97FB1EF400940E94F80857FD21
:1011D00007D00E941A0907FC03D04EF40C94F808BB
:1011E00050954095309521953F4F4F4F5F4F089553
:1011F00090958095709561957F4F8F4F9F4F089583
:10120000EE0FFF1F0590F491E02D0994AA1BBB1B64
:1012100051E107C0AA1FBB1FA617B70710F0A61BF6
:10122000B70B881F991F5A95A9F780959095BC0117
:10123000CD010895A1E21A2EAA1BBB1BFD010DC012
:10124000AA1FBB1FEE1FFF1FA217B307E407F50776
:1012500020F0A21BB30BE40BF50B661F771F881F52
:10126000991F1A9469F760957095809590959B01E8
:10127000AC01BD01CF0108950F931F93CF93DF936E
:101280008230910510F482E090E0E091EA02F09162
:10129000EB0230E020E0B0E0A0E0309799F42115B7
:1012A000310509F44AC0281B390B24303105D8F523
:1012B0008A819B816115710589F1FB01938382838A
:1012C000FE0111C0408151810281138148175907E5
:1012D000E0F04817590799F4109761F012960C93B3
:1012E000129713961C933296CF01DF91CF911F91E5
:1012F0000F9108950093EA021093EB02F4CF2115A9
:10130000310551F04217530738F0A901DB019A016A
:10131000BD01DF01F801C1CFEF01F9CF9093EB02DE
:101320008093EA02CDCFFE01E20FF31F81939193E8
:101330002250310939832883D7CF2091E802309198
:10134000E902232B41F420910201309103013093F3
:10135000E9022093E802209100013091010121155A
:10136000310541F42DB73EB740910401509105017C
:10137000241B350BE091E802F091E902E217F30734
:10138000A0F42E1B3F0B2817390778F0AC014E5FF5
:101390005F4F2417350748F04E0F5F1F5093E90247
:1013A0004093E802819391939FCFF0E0E0E09CCFDF
:1013B000CF93DF930097E9F0FC01329713821282FA
:1013C000A091EA02B091EB02ED0130E020E010972D
:1013D000A1F420813181820F931F2091E802309186
:1013E000E9022817390709F061C0F093E902E09398
:1013F000E802DF91CF910895EA01CE17DF07E8F503
:101400004A815B819E0141155105B1F7E901FB83DA
:10141000EA8349915991C40FD51FEC17FD0761F478
:10142000808191810296840F951FE90199838883B9
:10143000828193819B838A83F0E0E0E012968D9114
:101440009C9113970097B9F52D913C911197CD017F
:101450000296820F931F2091E8023091E90228172B
:10146000390739F6309751F51092EB021092EA02E3
:10147000B093E902A093E802BCCFD383C28340813A
:101480005181840F951FC817D90761F44E5F5F4FD4
:1014900088819981480F591F518340838A819B819C
:1014A000938382832115310509F0B0CFF093EB02CD
:1014B000E093EA029ECFFD01DC01C0CF13821282CD
:1014C000D7CFB0E0A0E0E7E6FAE00C9498088C01F2
:1014D000009751F4CB010E943C098C01C801CDB7A3
:1014E000DEB7E0E10C94B408FC01E60FF71F9C01A5
:1014F00022503109E217F30708F49DC0D901CD91BC
:10150000DC911197C617D70798F0C530D10530F395
:10151000CE0104978617970708F3C61BD70B2297AF
:10152000C193D1936D937C93CF010E94D809D6CFFC
:101530005B01AC1ABD0A4C018C0E9D1EA091EA0203
:10154000B091EB02512C412CF12CE12C109731F58C
:101550008091E8029091E9028815990509F05CC034
:101560004616570608F058C080910001909101017D
:10157000009741F48DB79EB7409104015091050149
:10158000841B950BE817F90708F055C0F093E902A2
:10159000E093E802F90171836083A0CF8D919C9163
:1015A000119712966C90129713967C901397A8152A
:1015B000B90559F56C0142E0C40ED11CCA14DB0414
:1015C00020F1AC014A195B09DA011296159780F0F7
:1015D0006282738251834083D9016D937C93E114BD
:1015E000F10471F0D7011396FC93EE93129776CF26
:1015F00022968C0F9D1FF90191838083F301EFCF19
:10160000F093EB02E093EA0269CF4816590608F41A
:101610002C017D01D3019ACFCB010E943C097C01B2
:10162000009749F0AE01B8010E941E0BC8010E944C
:10163000D809870153CF10E000E050CFFB01DC0157
:1016400002C001900D9241505040D8F70895FB011F
:10165000DC018D91019080190110D9F3990B089547
:10166000FB01DC0101900D920020E1F70895FB01E0
:10167000DC014150504030F08D910190801919F4F7
:101680000020B9F7881B990B0895F894FFCF00004C
:10169000EC02800000000000000420034D034D0414
:1016A000BE035C03B0030D0A00526F746174696E6F
:1016B0006720436F756E74657220436C6F636B7740
:1016C00069736500526F746174696E6720436C6F53
:1016D000636B77697365004D6F64653A004D616EA9
:1016E00075616C00537769746368656420746F205A
:1016F0004D616E75616C204D6F6465004175746F4E
:101700006D617469630053776974636865642074FC
:101710006F204175746F6D61746963204D6F6465EE
:10172000004D616E75616C20436C6F636B776973FC
:1017300065005265636569766564204D616E75610B
:101740006C20436C6F636B7769736520436F6D6DBD
:10175000616E64004D616E75616C20436F756E74CF
:10176000657220436C6F636B7769736500526563C4
:101770006569766564204D616E75616C20436F7597
:101780006E74657220436C6F636B77697365204379
:101790006F6D6D616E6400436F756E74657220438A
:1017A0006C6F636B7769736520416374696F6E005A
:107E0000112484B714BE81FFF0D085E080938100F7
:107E100082E08093C00088E18093C10086E0809377
:107E2000C20080E18093C4008EE0C9D0259A86E02C
:107E300020E33CEF91E0309385002093840096BBD3
:107E4000B09BFECF1D9AA8958150A9F7CC24DD24C4
:107E500088248394B5E0AB2EA1E19A2EF3E0BF2EE7
:107E6000A2D0813461F49FD0082FAFD0023811F036
:107E7000013811F484E001C083E08DD089C08234E0
:107E800011F484E103C0853419F485E0A6D080C0E4
:107E9000853579F488D0E82EFF2485D0082F10E0AE
:107EA000102F00270E291F29000F111F8ED06801E7
:107EB0006FC0863521F484E090D080E0DECF843638
:107EC00009F040C070D06FD0082F6DD080E0C81688
:107ED00080E7D80618F4F601B7BEE895C0E0D1E017
:107EE00062D089930C17E1F7F0E0CF16F0E7DF06D8
:107EF00018F0F601B7BEE89568D007B600FCFDCFD4
:107F0000A601A0E0B1E02C9130E011968C91119780
:107F100090E0982F8827822B932B1296FA010C0160
:107F200087BEE89511244E5F5F4FF1E0A038BF0790
:107F300051F7F601A7BEE89507B600FCFDCF97BE46
:107F4000E89526C08437B1F42ED02DD0F82E2BD052
:107F50003CD0F601EF2C8F010F5F1F4F84911BD097
:107F6000EA94F801C1F70894C11CD11CFA94CF0C13
:107F7000D11C0EC0853739F428D08EE10CD085E9AC
:107F80000AD08FE07ACF813511F488E018D01DD067
:107F900080E101D065CF982F8091C00085FFFCCF94
:107FA0009093C60008958091C00087FFFCCF809118
:107FB000C00084FD01C0A8958091C6000895E0E648
:107FC000F0E098E1908380830895EDDF803219F02E
:107FD00088E0F5DFFFCF84E1DECF1F93182FE3DFCA
:107FE0001150E9F7F2DF1F91089580E0E8DFEE27F6
:047FF000FF270994CA
:027FFE00040479
:00000001FF
